:100000000C943D000C9466000C9466000C94660001
:100010000C9466000C9466000C9466000C946600C8
:100020000C9466000C9466000C9466000C946600B8
:100030000C9466000C9466000C9466000C946600A8
:100040000C9466000C949A010C9493010C94A101F9
:100050000C9466000C9466000C9466000C94660088
:100060000C9466000C9477010C9466000C94660066
:100070000C9466000C946600D60211241FBECFEFCC
:10008000CDBFDFE3DEBF809140008093400081114F
:1000900005C098ED21E094BF209341008CBB24E380
:1000A000A0E0B4E301C01D92A539B207E1F710E06A
:1000B000CDE3D0E004C02197FE010E94ED02CC33D5
:1000C000D107C9F70E941C020C94F3020C940000A3
:1000D000AF92BF92CF92DF92EF92FF920F931F9356
:1000E000CF93DF936C017B018B01040F151FEB0194
:1000F0005E01AE18BF08C017D10759F06991D6014B
:10010000ED91FC910190F081E02DC6010995892BBC
:1001100079F7C501DF91CF911F910F91FF90EF907B
:10012000DF90CF90BF90AF900895FC015785408934
:10013000252F30E0842F90E0821B930B541710F092
:10014000CF96089501970895FC01958586859817A7
:1001500061F0A685AE0FBF2FB11D51968C9196858B
:100160009F5F9F73968790E008958FEF9FEF0895AC
:10017000FC0195858685981731F08685E80FF11D7D
:10018000818990E008958FEF9FEF0895FC01958598
:100190002685892F90E0805C9F4F821B91098F7389
:1001A00099270895FC010FB607FE04C08091110144
:1001B0008823A9F0A085B18514968C91149785FFAA
:1001C0000EC097858089981307C015968C91159756
:1001D0008F7D15968C930895E8940C94AF01089543
:1001E0000F931F93CF93DF93EC018C8581608C87F5
:1001F0009F85888998130BC0E885F985848185FFE0
:1002000006C08C8581FD0EC080E4848313C0062F58
:100210001F851F5F1F738889811316C0CE010E943E
:10022000D200F9CF85818F77806490E49483E8854C
:10023000F9858583E885F985628381E090E0DF9127
:10024000CF911F910F910895EF85EC0FFD2FF11DB8
:10025000EF5AFF4F00831F878C85E885F98581FF62
:1002600009C085818F77806690E49483E885F9855D
:100270008583E3CF85818062FBCFCF93DF93EC0151
:100280008C85882361F0E885F985858185FD03C02B
:10029000848186FD04C0CE010E94D200F4CFDF919C
:1002A000CF9108958231F0F490E0FC01E45DF947CC
:1002B00020812F3FB9F0FC01E65EF947E08130E292
:1002C000E39FF0011124FC5F613069F42183885FB2
:1002D0009947DC018C91E80FF11D8089613029F08C
:1002E0008860808B08952283F2CF877FFACFEF93C7
:1002F000FF93E1E9F4E38F938FB78F9380818F5F52
:10030000808381818F4F818382818F4F828383811C
:100310008F4F838381E08093960A8F918FBF8F9157
:10032000FF91EF911895EF93FF93F898E0E0F4E3D5
:100330000C94A701EF93FF93F898E0E0F4E30C949A
:10034000D601EF93FF93E0E0F4E30C9403022F93C4
:100350002FB72F938F939F93AF93BF936894CF93AF
:10036000DF9320E0C085D8E09089DF01A90FB21F9C
:10037000AF5ABF4F8C9120E42C838A839F5F9F7379
:100380008D812785291302C08F7D8D83908BDF910E
:10039000CF9116F00C94EF00BF91AF919F918F9188
:1003A0002F912FBF2F91FF91EF9118952F932FB77A
:1003B0002F933F938F939F93CF93DF93C085D8E084
:1003C000898198818674880F3485382B82FD0DC011
:1003D000C58581E08C0F8F732685281791F0CE0F8D
:1003E000DF2F20E0D21F998B85873487DF91CF9153
:1003F0009F918F913F912F912FBF2F91FF91EF915F
:1004000018953064F2CF8F938FB78F939F93CF93CC
:10041000DF93C085D8E09D8188818C8187FDFCCFEA
:100420009F7B90689D83DF91CF919F918F918FBF2C
:100430008F91FF91EF91189588ED90E084BF909394
:100440006100E0E0F6E082E081838FE0808781E276
:10045000808380E882838AE083871092E40581E0CC
:100460008093030A9EEF9093260A9093270A9BE0BD
:100470009093000A2FE33FE120939C0A30939D0A5A
:100480008093950A1092910A83E08093900A789461
:10049000019A80911104877F80931104039A8091BF
:1004A0001304877F80931304029A80911204877F3C
:1004B00080931204049A80911404877F809314041B
:1004C000059A80911504877F80931504249A809162
:1004D0003404877F8093340441988091510488606C
:1004E0008093510480910C3480FF12C080E094E32B
:1004F0000E943D01E0910834F09109341682158282
:1005000080EC848380910E3480930D3410920C34EF
:100510001FB7F894E0910834F0910934168283E013
:1005200087838BE292E080879187148680E88583B9
:1005300080EC868390910B34C0910A348091E2055F
:100540002CEFC11123EF8223292F30E040E0C111AD
:1005500042E0B90102C0660F771F4A95E2F7862B89
:100560008093E205933089F0C20FD32FD11DCC0FB9
:10057000DD1FCC0FDD1FC450DA4761E088810E9487
:10058000520162E089810E9452011FBF81E0809385
:10059000000A81E18093010A8FE490E080932A0AA7
:1005A00090932B0A82E08093E405FFCFE0E0F4E330
:1005B0001282138288EE93E0A0E0B0E084839583FA
:1005C000A683B7838EEE95E88083918380E098E0E0
:1005D00080879187128613860895EE0FFF1F05907E
:0A05E000F491E02D0994F894FFCF88
:1005EA0000000000F000680095003D01C600A4006C
:1005FA00B800070608090E0F10000C0B0B0D0405B6
:10060A0006070504030201000001020301020300B8
:10061A0000000000010101010101020202020000C2
:10062A000000102040802010080402010102040882
:04063A0002040801AD
:00000001FF
